:020000040000FA
:10000000F00600206D020000710200007302000083
:100010007502000077020000790200000000000075
:100020000000000000000000000000007B02000053
:100030007D020000000000007F020000810200003D
:10004000A503000083020000830200008302000079
:10005000830200008302000083020000830200008C
:10006000830200008302000083020000830200007C
:10007000830200008302000083020000830200006C
:100080008302000083020000830200005905000083
:1000900083020000F10500008302000081060000D9
:1000A000830200008302000083020000830200003C
:1000B0008302000083020000FD03000083020000B1
:1000C000830200008302000083020000830200001C
:1000D000830200008302000083020000830200000C
:1000E00083020000830200008302000083020000FC
:1000F00083020000830200008302000083020000EC
:1001000083020000830200008302000083020000DB
:1001100083020000830200008302000083020000CB
:1001200083020000830200008302000083020000BB
:1001300083020000830200008302000083020000AB
:1001400000000000000000000000000000000000AF
:10015000830200008302000083020000830200008B
:10016000000000000000000000000000000000008F
:10017000000000000000000000000000000000007F
:10018000000000000000000000000000000000006F
:10019000000000000000000000000000000000005F
:1001A000000000000000000000000000000000004F
:1001B000830200008302000083020000830200002B
:1001C000830200008302000083020000830200001B
:1001D000830200008302000083020000830200000B
:1001E00083020000830200008302000083020000FB
:1001F00083020000830200008302000083020000EB
:10020000830200008302000083020000000000005F
:1002100083020000830200008302000083020000CA
:1002200083020000830200008302000083020000BA
:1002300083020000830200008302000083020000AA
:10024000830200008302000083020000830200009A
:10025000830200008302000083020000830200008A
:1002600083020000830200008302000000F00AB84D
:10027000FEE7FEE7FEE7FEE7FEE7FEE7FEE7FEE756
:10028000FEE7FEE7DFF80CD000F026F80048004754
:10029000C1060000F006002072B6704762B67047D3
:1002A000EFF3108072B6704780F31088704730BF4C
:1002B0007047000040EA01039B0703D009E008C92A
:1002C000121F08C0042AFAD203E011F8013B00F81B
:1002D000013B521EF9D27047064C074D06E0E0681C
:1002E00040F0010394E8070098471034AC42F6D37D
:1002F000FFF7CCFFC00A0000E00A00004EF20861E0
:10030000C4F20F014A6942F002024A610A6842F0EF
:1003100008020A60D1F800241207FBD549F2000157
:10032000C4F2000100224A6047F22042C4F20002F7
:10033000136843F00B031360D2F8FC3043F00B0357
:10034000C2F8FC30D2F80CC14FF2FF032CEA030CC8
:1003500042F2220343EA0C03C2F80C31D2F808310E
:1003600023F00B03C2F8083108220A610A684FF62D
:10037000F0739A430A600A6840320A600A6842F0E1
:100380000F020A608860486840F0020048607047C9
:1003900049F20801C4F200014A689207FCD50860DE
:1003A0007047000080B584B044F21440C4F20000ED
:1003B00001680391016809060BD58021816040F234
:1003C0001C1040F20411C2F20000C2F2000100F061
:1003D00065F940F21410C2F2000000788DF80B00AD
:1003E000002001900198632806DC00BF01980130CD
:1003F000019001986428F9DB04B080BD10B582B08B
:1004000045F21444C4F202042068C0070AD12068EF
:10041000C0060FD540F21C10C2F2000000F0EEF949
:10042000102006E040F21510C2F2000000F0A2F920
:100430000120A06040F21410C2F2000000788DF894
:100440000700002000900098632805DC0098013028
:10045000009000986428F9DB02B010BD4EF20860ED
:10046000C4F20F00016841F020010160D0F80014CF
:100470008906FBD545F2044044F24B31C4F2020038
:10048000C4F64F41C0F81C111F210E22C0F82011E4
:1004900040F8042C1122C0F80C21C0F818110021DA
:1004A00040F8081C0168052221F011010160416833
:1004B00021F011014160816841F011018160816981
:1004C00041F011018161C16841F01101C1604EF23A
:1004D0000010CEF20000D0F81C1362F35751C0F8A0
:1004E0001C13016841F08041016070474EF27001B9
:1004F000C4F20F010A6842F000420A600A6842F43E
:1005000000620A6051F8102C22F4F86241F8102CB5
:1005100051F8102C02F5A86241F8102C0A6822F05C
:1005200070020A600A680A600A6822F400520A60CF
:100530000A6842F080420A600A6822F0FE5202EB2A
:100540008050086051F8200C4006FBD5086820F464
:10055000006008607047000080B52420C4F20300EA
:100560000121016040F20810C2F2000000688047DB
:1005700080BD00004EF2046CC4F20F0CDCF80030B9
:10058000013943F00103CCF8003040F20813C2F205
:10059000000318600C20C4F2030003684FF0000C45
:1005A00023F001030360022340F80CCC40F8083C20
:1005B000C1610121C0F82CC08161C16841F0010115
:1005C000C1604EF21041CEF200010B6823F07F4370
:1005D00043EA42720A604FF6F042CFF6FF724FF4E0
:1005E00000238B50016841F0010101607047000059
:1005F00080B541F22400C4F203000121016040F201
:100600000C10C2F200000068804780BD4EF2046CFE
:10061000C4F20F0CDCF80030013943F00203CCF8CF
:10062000003040F20C13C2F20003186041F20C00DB
:10063000C4F203004FF0000C0223C0F800C040F8E1
:100640000CCC40F8083CC161C0F82CC04FF0010C44
:100650004EF21443C0F818C0C0F80CC0CEF200032C
:10066000196821F47F4141EA423119604FF6EC41AB
:10067000CFF6FF714FF400125A50C0F800C0704717
:1006800080B542F22400C4F203000121016040F26F
:100690001010C2F200000068804780BD82684AF6F0
:1006A000AB230132CAF6AA23A2FB033C4FEA5C0348
:1006B00003EB4303D21A8260895C0171704700002A
:1006C000F4B0FFF7E9FD0420FFF710FF40F6DC115E
:1006D0003BADC0F200012846E422FFF7EBFD40F6F7
:1006E000F80102AEC0F200013046E422FFF7E2FD5D
:1006F00040F21C14C2F200044FF0390C2046294687
:1007000039223346CDF800C000F090F840F21810BE
:10071000C2F20000016840F20402C2F2000252F884
:10072000212023790131B2FBF3F2016090B2FFF78F
:10073000E5FDFFF793FE2068002204EB8000D0F86F
:10074000F01040F68D00C0F20000FFF713FF2068A4
:10075000002204EB8000C16840F69100C0F2000066
:10076000FFF754FF00F00CF8FFF798FDFFF79FFD2F
:10077000FCE700000178B1FA81F149090170704786
:100780004EF20860C4F20F00016841F001010160FF
:10079000D0F80014C907FBD044F20440C4F20000B2
:1007A00080210022C0F8201140F8042CC0F8181154
:1007B00040F8082C0168022221F0800101604168A4
:1007C00021F080014160816841F080018160816990
:1007D00041F080018161C16841F08001C1604EF249
:1007E0000010CEF20000D0F8001362F34711C0F8F9
:1007F0000013016841F001010160704710B5044623
:10080000FFF74AFD00202060E06841F22801C4F2B1
:10081000030108602068282104EB8000D0F8F00074
:10082000C4F203010860FFF739FD10BDB0B582B016
:10083000DDF818C001244FF0000EBCF1000F047168
:10084000C0F808E0C0F800E009D000F1EC04043B77
:1008500053F8045FBCF1010C44F8045FF8D1CDF803
:1008600004E0019B93420ED2043900BF51F8043FCB
:100870000093019D00EB8505EB60019B0133019323
:10088000019B9342F2D302B0B0BD0000704700005C
:1008900010B540F21510C2F200000078E0B940F245
:1008A0000000C2F200000078002808BF10BD40F22E
:1008B0001814C2F20004206840F20401C2F20001E0
:1008C00031F8200000EB800080B2FFF761FD206866
:1008D000013000F03F00206010BD02E008C8121F88
:1008E00008C1002AFAD170477047002001E001C119
:1008F000121F002AFBD1704700B4C40400B4C40422
:1009000000B4C40400B4C40400B4C40400B4C404F7
:1009100000B4C40400B4C404005A620200D012132C
:100920000068890900B4C40400B4C40400B4C40459
:1009300000B4C40400B4C40400B4C40400B4C404C7
:1009400000B4C40400B4C404ABE69601ABE696015F
:10095000ABE6960100B4C4040068890900B4C4047D
:10096000005A6202005A620200B4C40400B4C40413
:1009700000B4C40400B4C4040068890900B4C40409
:10098000005A6202005A620200B4C40400B4C404F3
:1009900000B4C40400B4C40400B4C40400B4C40467
:1009A00000B4C404005A6202005A620200B4C404D3
:1009B00000B4C40400B4C40400B4C40400B4C40447
:1009C0000068890900B4C40400D01213ABE6960194
:1009D000ABE69601ABE6960100688909D00E0000EF
:1009E000D00E0000D00E0000D00E0000A0100000BD
:1009F000D00E000032160000D00E0000A010000043
:100A0000A0100000FFFFFFFFFFFFFFFFA01000008E
:100A1000A0100000A0100000A0100000B5120000FF
:100A2000A0100000750C0000A0100000D00E000007
:100A3000A0100000B5120000C5130000B5120000A0
:100A4000FFFFFFFF32160000C5130000B5120000C3
:100A5000B5120000B5120000B5120000B51200007A
:100A6000FFFFFFFF32160000C5130000B5120000A3
:100A7000B5120000B5120000B5120000C513000049
:100A8000B5120000FFFFFFFF32160000C513000083
:100A9000B5120000B5120000B5120000B51200003A
:100AA000B5120000750C0000B5120000A010000087
:100AB000FE0D0000190B0000FE0D0000A01000004C
:100AC000E00A00000000002008010000DA08000031
:100AD000E80B000008010020E8050000EA0800001B
:100AE000010000002000000023000000260000009C
:100AF000290000002C0000002F0000003200000040
:100B00003400000036000000390000003A00000008
:100B10003C0000003D0000003E0000003F000000DF
:100B20003F0000003F0000003F0000003F000000C9
:100B30003E0000003D0000003B00000039000000C6
:100B400037000000350000003300000030000000D6
:100B50002D0000002A0000002700000024000000F3
:100B6000210000001E0000001B0000001800000013
:100B700015000000120000000F0000000C00000033
:100B80000A00000008000000060000000400000049
:100B90000200000001000000000000000000000052
:100BA0000000000000000000000000000100000044
:100BB0000200000003000000050000000600000025
:100BC000090000000B0000000D00000010000000F4
:100BD0001300000016000000190000001C000000B7
:080BE0001F00000001020400E7
:040000050000026D88
:00000001FF
